{
  "_format": "hh-sol-artifact-1",
  "contractName": "NFTMarketplace",
  "sourceName": "contracts/NFTMarketplace.sol",
  "abi": [
    {
      "inputs": [],
      "stateMutability": "nonpayable",
      "type": "constructor"
    },
    {
      "anonymous": false,
      "inputs": [
        {
          "indexed": true,
          "internalType": "address",
          "name": "owner",
          "type": "address"
        },
        {
          "indexed": true,
          "internalType": "address",
          "name": "approved",
          "type": "address"
        },
        {
          "indexed": true,
          "internalType": "uint256",
          "name": "tokenId",
          "type": "uint256"
        }
      ],
      "name": "Approval",
      "type": "event"
    },
    {
      "anonymous": false,
      "inputs": [
        {
          "indexed": true,
          "internalType": "address",
          "name": "owner",
          "type": "address"
        },
        {
          "indexed": true,
          "internalType": "address",
          "name": "operator",
          "type": "address"
        },
        {
          "indexed": false,
          "internalType": "bool",
          "name": "approved",
          "type": "bool"
        }
      ],
      "name": "ApprovalForAll",
      "type": "event"
    },
    {
      "anonymous": false,
      "inputs": [
        {
          "indexed": false,
          "internalType": "uint256",
          "name": "_fromTokenId",
          "type": "uint256"
        },
        {
          "indexed": false,
          "internalType": "uint256",
          "name": "_toTokenId",
          "type": "uint256"
        }
      ],
      "name": "BatchMetadataUpdate",
      "type": "event"
    },
    {
      "anonymous": false,
      "inputs": [
        {
          "indexed": false,
          "internalType": "uint256",
          "name": "_tokenId",
          "type": "uint256"
        }
      ],
      "name": "MetadataUpdate",
      "type": "event"
    },
    {
      "anonymous": false,
      "inputs": [
        {
          "indexed": true,
          "internalType": "address",
          "name": "from",
          "type": "address"
        },
        {
          "indexed": true,
          "internalType": "address",
          "name": "to",
          "type": "address"
        },
        {
          "indexed": true,
          "internalType": "uint256",
          "name": "tokenId",
          "type": "uint256"
        }
      ],
      "name": "Transfer",
      "type": "event"
    },
    {
      "inputs": [
        {
          "internalType": "address",
          "name": "to",
          "type": "address"
        },
        {
          "internalType": "uint256",
          "name": "tokenId",
          "type": "uint256"
        }
      ],
      "name": "approve",
      "outputs": [],
      "stateMutability": "nonpayable",
      "type": "function"
    },
    {
      "inputs": [
        {
          "internalType": "address",
          "name": "owner",
          "type": "address"
        }
      ],
      "name": "balanceOf",
      "outputs": [
        {
          "internalType": "uint256",
          "name": "",
          "type": "uint256"
        }
      ],
      "stateMutability": "view",
      "type": "function"
    },
    {
      "inputs": [
        {
          "internalType": "string",
          "name": "tokenURI",
          "type": "string"
        },
        {
          "internalType": "uint256",
          "name": "price",
          "type": "uint256"
        }
      ],
      "name": "createToken",
      "outputs": [
        {
          "internalType": "uint256",
          "name": "",
          "type": "uint256"
        }
      ],
      "stateMutability": "payable",
      "type": "function"
    },
    {
      "inputs": [
        {
          "internalType": "uint256",
          "name": "tokenId",
          "type": "uint256"
        }
      ],
      "name": "executeSale",
      "outputs": [],
      "stateMutability": "payable",
      "type": "function"
    },
    {
      "inputs": [],
      "name": "getAllNFTs",
      "outputs": [
        {
          "components": [
            {
              "internalType": "uint256",
              "name": "tokenId",
              "type": "uint256"
            },
            {
              "internalType": "address payable",
              "name": "owner",
              "type": "address"
            },
            {
              "internalType": "address payable",
              "name": "seller",
              "type": "address"
            },
            {
              "internalType": "uint256",
              "name": "price",
              "type": "uint256"
            },
            {
              "internalType": "bool",
              "name": "currentlyListed",
              "type": "bool"
            }
          ],
          "internalType": "struct NFTMarketplace.ListedToken[]",
          "name": "",
          "type": "tuple[]"
        }
      ],
      "stateMutability": "view",
      "type": "function"
    },
    {
      "inputs": [
        {
          "internalType": "uint256",
          "name": "tokenId",
          "type": "uint256"
        }
      ],
      "name": "getApproved",
      "outputs": [
        {
          "internalType": "address",
          "name": "",
          "type": "address"
        }
      ],
      "stateMutability": "view",
      "type": "function"
    },
    {
      "inputs": [],
      "name": "getCurrentToken",
      "outputs": [
        {
          "internalType": "uint256",
          "name": "",
          "type": "uint256"
        }
      ],
      "stateMutability": "view",
      "type": "function"
    },
    {
      "inputs": [],
      "name": "getLatestIdToListedToken",
      "outputs": [
        {
          "components": [
            {
              "internalType": "uint256",
              "name": "tokenId",
              "type": "uint256"
            },
            {
              "internalType": "address payable",
              "name": "owner",
              "type": "address"
            },
            {
              "internalType": "address payable",
              "name": "seller",
              "type": "address"
            },
            {
              "internalType": "uint256",
              "name": "price",
              "type": "uint256"
            },
            {
              "internalType": "bool",
              "name": "currentlyListed",
              "type": "bool"
            }
          ],
          "internalType": "struct NFTMarketplace.ListedToken",
          "name": "",
          "type": "tuple"
        }
      ],
      "stateMutability": "view",
      "type": "function"
    },
    {
      "inputs": [],
      "name": "getListPrice",
      "outputs": [
        {
          "internalType": "uint256",
          "name": "",
          "type": "uint256"
        }
      ],
      "stateMutability": "view",
      "type": "function"
    },
    {
      "inputs": [
        {
          "internalType": "uint256",
          "name": "tokenId",
          "type": "uint256"
        }
      ],
      "name": "getListedForTokenId",
      "outputs": [
        {
          "components": [
            {
              "internalType": "uint256",
              "name": "tokenId",
              "type": "uint256"
            },
            {
              "internalType": "address payable",
              "name": "owner",
              "type": "address"
            },
            {
              "internalType": "address payable",
              "name": "seller",
              "type": "address"
            },
            {
              "internalType": "uint256",
              "name": "price",
              "type": "uint256"
            },
            {
              "internalType": "bool",
              "name": "currentlyListed",
              "type": "bool"
            }
          ],
          "internalType": "struct NFTMarketplace.ListedToken",
          "name": "",
          "type": "tuple"
        }
      ],
      "stateMutability": "view",
      "type": "function"
    },
    {
      "inputs": [],
      "name": "getMyNFTs",
      "outputs": [
        {
          "components": [
            {
              "internalType": "uint256",
              "name": "tokenId",
              "type": "uint256"
            },
            {
              "internalType": "address payable",
              "name": "owner",
              "type": "address"
            },
            {
              "internalType": "address payable",
              "name": "seller",
              "type": "address"
            },
            {
              "internalType": "uint256",
              "name": "price",
              "type": "uint256"
            },
            {
              "internalType": "bool",
              "name": "currentlyListed",
              "type": "bool"
            }
          ],
          "internalType": "struct NFTMarketplace.ListedToken[]",
          "name": "",
          "type": "tuple[]"
        }
      ],
      "stateMutability": "view",
      "type": "function"
    },
    {
      "inputs": [
        {
          "internalType": "address",
          "name": "owner",
          "type": "address"
        },
        {
          "internalType": "address",
          "name": "operator",
          "type": "address"
        }
      ],
      "name": "isApprovedForAll",
      "outputs": [
        {
          "internalType": "bool",
          "name": "",
          "type": "bool"
        }
      ],
      "stateMutability": "view",
      "type": "function"
    },
    {
      "inputs": [],
      "name": "name",
      "outputs": [
        {
          "internalType": "string",
          "name": "",
          "type": "string"
        }
      ],
      "stateMutability": "view",
      "type": "function"
    },
    {
      "inputs": [
        {
          "internalType": "uint256",
          "name": "tokenId",
          "type": "uint256"
        }
      ],
      "name": "ownerOf",
      "outputs": [
        {
          "internalType": "address",
          "name": "",
          "type": "address"
        }
      ],
      "stateMutability": "view",
      "type": "function"
    },
    {
      "inputs": [
        {
          "internalType": "address",
          "name": "from",
          "type": "address"
        },
        {
          "internalType": "address",
          "name": "to",
          "type": "address"
        },
        {
          "internalType": "uint256",
          "name": "tokenId",
          "type": "uint256"
        }
      ],
      "name": "safeTransferFrom",
      "outputs": [],
      "stateMutability": "nonpayable",
      "type": "function"
    },
    {
      "inputs": [
        {
          "internalType": "address",
          "name": "from",
          "type": "address"
        },
        {
          "internalType": "address",
          "name": "to",
          "type": "address"
        },
        {
          "internalType": "uint256",
          "name": "tokenId",
          "type": "uint256"
        },
        {
          "internalType": "bytes",
          "name": "data",
          "type": "bytes"
        }
      ],
      "name": "safeTransferFrom",
      "outputs": [],
      "stateMutability": "nonpayable",
      "type": "function"
    },
    {
      "inputs": [
        {
          "internalType": "address",
          "name": "operator",
          "type": "address"
        },
        {
          "internalType": "bool",
          "name": "approved",
          "type": "bool"
        }
      ],
      "name": "setApprovalForAll",
      "outputs": [],
      "stateMutability": "nonpayable",
      "type": "function"
    },
    {
      "inputs": [
        {
          "internalType": "bytes4",
          "name": "interfaceId",
          "type": "bytes4"
        }
      ],
      "name": "supportsInterface",
      "outputs": [
        {
          "internalType": "bool",
          "name": "",
          "type": "bool"
        }
      ],
      "stateMutability": "view",
      "type": "function"
    },
    {
      "inputs": [],
      "name": "symbol",
      "outputs": [
        {
          "internalType": "string",
          "name": "",
          "type": "string"
        }
      ],
      "stateMutability": "view",
      "type": "function"
    },
    {
      "inputs": [
        {
          "internalType": "uint256",
          "name": "tokenId",
          "type": "uint256"
        }
      ],
      "name": "tokenURI",
      "outputs": [
        {
          "internalType": "string",
          "name": "",
          "type": "string"
        }
      ],
      "stateMutability": "view",
      "type": "function"
    },
    {
      "inputs": [
        {
          "internalType": "address",
          "name": "from",
          "type": "address"
        },
        {
          "internalType": "address",
          "name": "to",
          "type": "address"
        },
        {
          "internalType": "uint256",
          "name": "tokenId",
          "type": "uint256"
        }
      ],
      "name": "transferFrom",
      "outputs": [],
      "stateMutability": "nonpayable",
      "type": "function"
    },
    {
      "inputs": [
        {
          "internalType": "uint256",
          "name": "_listPrice",
          "type": "uint256"
        }
      ],
      "name": "updateListPrice",
      "outputs": [],
      "stateMutability": "payable",
      "type": "function"
    }
  ],
  "bytecode": "0x6080604052662386f26fc10000600a553480156200001c57600080fd5b50604080518082018252600e81526d4e46544d61726b6574706c61636560901b6020808301918252835180850190945260048452634e46544d60e01b9084015281519192916200006f91600091620000a0565b50805162000085906001906020840190620000a0565b5050600780546001600160a01b031916331790555062000183565b828054620000ae9062000146565b90600052602060002090601f016020900481019282620000d257600085556200011d565b82601f10620000ed57805160ff19168380011785556200011d565b828001600101855582156200011d579182015b828111156200011d57825182559160200191906001019062000100565b506200012b9291506200012f565b5090565b5b808211156200012b576000815560010162000130565b600181811c908216806200015b57607f821691505b602082108114156200017d57634e487b7160e01b600052602260045260246000fd5b50919050565b6120a480620001936000396000f3fe6080604052600436106101355760003560e01c806395d89b41116100ab578063c322579c1161006f578063c322579c14610354578063c87b56dd14610367578063d1a88ae514610387578063e0391b091461039c578063e985e9c5146103b1578063ef2d1746146103fa57600080fd5b806395d89b41146102bf57806398c3df16146102d45780639b1225c414610301578063a22cb46514610314578063b88d4fde1461033457600080fd5b806342842e0e116100fd57806342842e0e1461020b578063629cb2e41461022b5780636352211e1461024d57806368f1945f1461026d57806370a082311461028c57806372b3b620146102ac57600080fd5b806301ffc9a71461013a57806306fdde031461016f578063081812fc14610191578063095ea7b3146101c957806323b872dd146101eb575b600080fd5b34801561014657600080fd5b5061015a610155366004611ca5565b61040f565b60405190151581526020015b60405180910390f35b34801561017b57600080fd5b5061018461043a565b6040516101669190611e77565b34801561019d57600080fd5b506101b16101ac366004611d38565b6104cc565b6040516001600160a01b039091168152602001610166565b3480156101d557600080fd5b506101e96101e4366004611c7b565b6104f3565b005b3480156101f757600080fd5b506101e9610206366004611b87565b61060e565b34801561021757600080fd5b506101e9610226366004611b87565b61063f565b34801561023757600080fd5b5061024061065a565b6040516101669190611e29565b34801561025957600080fd5b506101b1610268366004611d38565b610882565b34801561027957600080fd5b50600a545b604051908152602001610166565b34801561029857600080fd5b5061027e6102a7366004611b39565b6108e2565b61027e6102ba366004611cdf565b610968565b3480156102cb57600080fd5b50610184610a56565b3480156102e057600080fd5b506102f46102ef366004611d38565b610a65565b6040516101669190611f6e565b6101e961030f366004611d38565b610acf565b34801561032057600080fd5b506101e961032f366004611c3f565b610c2d565b34801561034057600080fd5b506101e961034f366004611bc3565b610c3c565b6101e9610362366004611d38565b610c6e565b34801561037357600080fd5b50610184610382366004611d38565b610cdd565b34801561039357600080fd5b506102f4610dee565b3480156103a857600080fd5b50610240610e65565b3480156103bd57600080fd5b5061015a6103cc366004611b54565b6001600160a01b03918216600090815260056020908152604080832093909416825291909152205460ff1690565b34801561040657600080fd5b5061027e610f90565b60006001600160e01b03198216632483248360e11b1480610434575061043482610fa0565b92915050565b60606000805461044990611fc0565b80601f016020809104026020016040519081016040528092919081815260200182805461047590611fc0565b80156104c25780601f10610497576101008083540402835291602001916104c2565b820191906000526020600020905b8154815290600101906020018083116104a557829003601f168201915b5050505050905090565b60006104d782610ff0565b506000908152600460205260409020546001600160a01b031690565b60006104fe82610882565b9050806001600160a01b0316836001600160a01b031614156105715760405162461bcd60e51b815260206004820152602160248201527f4552433732313a20617070726f76616c20746f2063757272656e74206f776e656044820152603960f91b60648201526084015b60405180910390fd5b336001600160a01b038216148061058d575061058d81336103cc565b6105ff5760405162461bcd60e51b815260206004820152603d60248201527f4552433732313a20617070726f76652063616c6c6572206973206e6f7420746f60448201527f6b656e206f776e6572206f7220617070726f76656420666f7220616c6c0000006064820152608401610568565b6106098383611052565b505050565b61061833826110c0565b6106345760405162461bcd60e51b815260040161056890611e8a565b61060983838361113e565b61060983838360405180602001604052806000815250610c3c565b6060600061066760085490565b905060008060005b838110156106ff5733600b6000610687846001611f7c565b81526020810191909152604001600020600101546001600160a01b031614806106da575033600b60006106bb846001611f7c565b81526020810191909152604001600020600201546001600160a01b0316145b156106ed576106ea600184611f7c565b92505b806106f781611ffb565b91505061066f565b5060008267ffffffffffffffff81111561071b5761071b612042565b60405190808252806020026020018201604052801561075457816020015b6107416119e0565b8152602001906001900390816107395790505b50905060005b8481101561087a5733600b6000610772846001611f7c565b81526020810191909152604001600020600101546001600160a01b031614806107c5575033600b60006107a6846001611f7c565b81526020810191909152604001600020600201546001600160a01b0316145b156108685760006107d7826001611f7c565b6000818152600b6020908152604091829020825160a0810184528154815260018201546001600160a01b039081169382019390935260028201549092169282019290925260038201546060820152600482015460ff16151560808201528551929350909185908790811061084d5761084d61202c565b6020908102919091010152610863600186611f7c565b945050505b8061087281611ffb565b91505061075a565b505050505090565b6000818152600260205260408120546001600160a01b0316806104345760405162461bcd60e51b8152602060048201526018602482015277115490cdcc8c4e881a5b9d985b1a59081d1bdad95b88125160421b6044820152606401610568565b60006001600160a01b03821661094c5760405162461bcd60e51b815260206004820152602960248201527f4552433732313a2061646472657373207a65726f206973206e6f7420612076616044820152683634b21037bbb732b960b91b6064820152608401610568565b506001600160a01b031660009081526003602052604090205490565b6000600a5434146109bb5760405162461bcd60e51b815260206004820152601960248201527f53656e6420656e6f75676820657468657220746f206c697374000000000000006044820152606401610568565b60008211610a165760405162461bcd60e51b815260206004820152602260248201527f4d616b652073757265207468652070726963652069736e2774206e6567617469604482015261766560f01b6064820152608401610568565b610a24600880546001019055565b6000610a2f60085490565b9050610a3b33826112a2565b610a4581856112bc565b610a4f818461138e565b9392505050565b60606001805461044990611fc0565b610a6d6119e0565b506000908152600b6020908152604091829020825160a0810184528154815260018201546001600160a01b03908116938201939093526002820154909216928201929092526003820154606082015260049091015460ff161515608082015290565b6000818152600b6020526040902060030154348114610b565760405162461bcd60e51b815260206004820152603f60248201527f506c65617365207375626d6974207468652061736b696e67207072696365206660448201527f6f7220746865204e465420696e206f7264657220746f207075726368617365006064820152608401610568565b6000828152600b602052604090206002810180546004909201805460ff191660011790556001600160a01b03198216331790556001600160a01b0316610ba0600980546001019055565b610bab30338561113e565b610bb530846104f3565b600754600a546040516001600160a01b039092169181156108fc0291906000818181858888f19350505050158015610bf1573d6000803e3d6000fd5b506040516001600160a01b038216903480156108fc02916000818181858888f19350505050158015610c27573d6000803e3d6000fd5b50505050565b610c3833838361142b565b5050565b610c4633836110c0565b610c625760405162461bcd60e51b815260040161056890611e8a565b610c27848484846114fa565b6007546001600160a01b03163314610cd85760405162461bcd60e51b815260206004820152602760248201527f4f6e6c79206f776e65722063616e2075706461746520746865206c697374696e6044820152666720707269636560c81b6064820152608401610568565b600a55565b6060610ce882610ff0565b60008281526006602052604081208054610d0190611fc0565b80601f0160208091040260200160405190810160405280929190818152602001828054610d2d90611fc0565b8015610d7a5780601f10610d4f57610100808354040283529160200191610d7a565b820191906000526020600020905b815481529060010190602001808311610d5d57829003601f168201915b505050505090506000610d9860408051602081019091526000815290565b9050805160001415610dab575092915050565b815115610ddd578082604051602001610dc5929190611dbd565b60405160208183030381529060405292505050919050565b610de68461152d565b949350505050565b610df66119e0565b6000610e0160085490565b6000908152600b6020908152604091829020825160a0810184528154815260018201546001600160a01b03908116938201939093526002820154909216928201929092526003820154606082015260049091015460ff161515608082015292915050565b60606000610e7260085490565b905060008167ffffffffffffffff811115610e8f57610e8f612042565b604051908082528060200260200182016040528015610ec857816020015b610eb56119e0565b815260200190600190039081610ead5790505b5090506000805b83811015610f87576000610ee4826001611f7c565b6000818152600b6020908152604091829020825160a0810184528154815260018201546001600160a01b039081169382019390935260028201549092169282019290925260038201546060820152600482015460ff161515608082015286519293509091869086908110610f5a57610f5a61202c565b6020908102919091010152610f70600185611f7c565b935050508080610f7f90611ffb565b915050610ecf565b50909392505050565b6000610f9b60085490565b905090565b60006001600160e01b031982166380ac58cd60e01b1480610fd157506001600160e01b03198216635b5e139f60e01b145b8061043457506301ffc9a760e01b6001600160e01b0319831614610434565b6000818152600260205260409020546001600160a01b031661104f5760405162461bcd60e51b8152602060048201526018602482015277115490cdcc8c4e881a5b9d985b1a59081d1bdad95b88125160421b6044820152606401610568565b50565b600081815260046020526040902080546001600160a01b0319166001600160a01b038416908117909155819061108782610882565b6001600160a01b03167f8c5be1e5ebec7d5bd14f71427d1e84f3dd0314c0f7b2291e5b200ac8c7c3b92560405160405180910390a45050565b6000806110cc83610882565b9050806001600160a01b0316846001600160a01b0316148061111357506001600160a01b0380821660009081526005602090815260408083209388168352929052205460ff165b80610de65750836001600160a01b031661112c846104cc565b6001600160a01b031614949350505050565b826001600160a01b031661115182610882565b6001600160a01b0316146111775760405162461bcd60e51b815260040161056890611f29565b6001600160a01b0382166111d95760405162461bcd60e51b8152602060048201526024808201527f4552433732313a207472616e7366657220746f20746865207a65726f206164646044820152637265737360e01b6064820152608401610568565b826001600160a01b03166111ec82610882565b6001600160a01b0316146112125760405162461bcd60e51b815260040161056890611f29565b600081815260046020908152604080832080546001600160a01b03199081169091556001600160a01b0387811680865260038552838620805460001901905590871680865283862080546001019055868652600290945282852080549092168417909155905184937fddf252ad1be2c89b69c2b068fc378daa952ba7f163c4a11628f55a4df523b3ef91a4505050565b610c388282604051806020016040528060008152506115a0565b6000828152600260205260409020546001600160a01b03166113375760405162461bcd60e51b815260206004820152602e60248201527f45524337323155524953746f726167653a2055524920736574206f66206e6f6e60448201526d32bc34b9ba32b73a103a37b5b2b760911b6064820152608401610568565b6000828152600660209081526040909120825161135692840190611a0e565b506040518281527ff8e1a15aba9398e019f0b49df1a4fde98ee17ae345cb5f6b5e2c27f5033e8ce79060200160405180910390a15050565b6040805160a081018252838152306020808301828152338486018181526060860188815260016080880181815260008c8152600b9097529890952096518755925193860180546001600160a01b039586166001600160a01b03199182161790915590516002870180549190951691161790925551600384015592516004909201805492151560ff1990931692909217909155610c3891908461113e565b816001600160a01b0316836001600160a01b0316141561148d5760405162461bcd60e51b815260206004820152601960248201527f4552433732313a20617070726f766520746f2063616c6c6572000000000000006044820152606401610568565b6001600160a01b03838116600081815260056020908152604080832094871680845294825291829020805460ff191686151590811790915591519182527f17307eab39ab6107e8899845ad3d59bd9653f200f220920489ca2b5937696c31910160405180910390a3505050565b61150584848461113e565b611511848484846115d3565b610c275760405162461bcd60e51b815260040161056890611ed7565b606061153882610ff0565b600061154f60408051602081019091526000815290565b9050600081511161156f5760405180602001604052806000815250610a4f565b80611579846116e0565b60405160200161158a929190611dbd565b6040516020818303038152906040529392505050565b6115aa838361177d565b6115b760008484846115d3565b6106095760405162461bcd60e51b815260040161056890611ed7565b60006001600160a01b0384163b156116d557604051630a85bd0160e11b81526001600160a01b0385169063150b7a0290611617903390899088908890600401611dec565b602060405180830381600087803b15801561163157600080fd5b505af1925050508015611661575060408051601f3d908101601f1916820190925261165e91810190611cc2565b60015b6116bb573d80801561168f576040519150601f19603f3d011682016040523d82523d6000602084013e611694565b606091505b5080516116b35760405162461bcd60e51b815260040161056890611ed7565b805181602001fd5b6001600160e01b031916630a85bd0160e11b149050610de6565b506001949350505050565b606060006116ed83611908565b600101905060008167ffffffffffffffff81111561170d5761170d612042565b6040519080825280601f01601f191660200182016040528015611737576020820181803683370190505b5090508181016020015b600019016f181899199a1a9b1b9c1cb0b131b232b360811b600a86061a8153600a850494508461177057611775565b611741565b509392505050565b6001600160a01b0382166117d35760405162461bcd60e51b815260206004820181905260248201527f4552433732313a206d696e7420746f20746865207a65726f20616464726573736044820152606401610568565b6000818152600260205260409020546001600160a01b0316156118385760405162461bcd60e51b815260206004820152601c60248201527f4552433732313a20746f6b656e20616c7265616479206d696e746564000000006044820152606401610568565b6000818152600260205260409020546001600160a01b03161561189d5760405162461bcd60e51b815260206004820152601c60248201527f4552433732313a20746f6b656e20616c7265616479206d696e746564000000006044820152606401610568565b6001600160a01b038216600081815260036020908152604080832080546001019055848352600290915280822080546001600160a01b0319168417905551839291907fddf252ad1be2c89b69c2b068fc378daa952ba7f163c4a11628f55a4df523b3ef908290a45050565b60008072184f03e93ff9f4daa797ed6e38ed64bf6a1f0160401b83106119475772184f03e93ff9f4daa797ed6e38ed64bf6a1f0160401b830492506040015b6d04ee2d6d415b85acef81000000008310611973576d04ee2d6d415b85acef8100000000830492506020015b662386f26fc10000831061199157662386f26fc10000830492506010015b6305f5e10083106119a9576305f5e100830492506008015b61271083106119bd57612710830492506004015b606483106119cf576064830492506002015b600a83106104345760010192915050565b6040805160a08101825260008082526020820181905291810182905260608101829052608081019190915290565b828054611a1a90611fc0565b90600052602060002090601f016020900481019282611a3c5760008555611a82565b82601f10611a5557805160ff1916838001178555611a82565b82800160010185558215611a82579182015b82811115611a82578251825591602001919060010190611a67565b50611a8e929150611a92565b5090565b5b80821115611a8e5760008155600101611a93565b600067ffffffffffffffff80841115611ac257611ac2612042565b604051601f8501601f19908116603f01168101908282118183101715611aea57611aea612042565b81604052809350858152868686011115611b0357600080fd5b858560208301376000602087830101525050509392505050565b80356001600160a01b0381168114611b3457600080fd5b919050565b600060208284031215611b4b57600080fd5b610a4f82611b1d565b60008060408385031215611b6757600080fd5b611b7083611b1d565b9150611b7e60208401611b1d565b90509250929050565b600080600060608486031215611b9c57600080fd5b611ba584611b1d565b9250611bb360208501611b1d565b9150604084013590509250925092565b60008060008060808587031215611bd957600080fd5b611be285611b1d565b9350611bf060208601611b1d565b925060408501359150606085013567ffffffffffffffff811115611c1357600080fd5b8501601f81018713611c2457600080fd5b611c3387823560208401611aa7565b91505092959194509250565b60008060408385031215611c5257600080fd5b611c5b83611b1d565b915060208301358015158114611c7057600080fd5b809150509250929050565b60008060408385031215611c8e57600080fd5b611c9783611b1d565b946020939093013593505050565b600060208284031215611cb757600080fd5b8135610a4f81612058565b600060208284031215611cd457600080fd5b8151610a4f81612058565b60008060408385031215611cf257600080fd5b823567ffffffffffffffff811115611d0957600080fd5b8301601f81018513611d1a57600080fd5b611d2985823560208401611aa7565b95602094909401359450505050565b600060208284031215611d4a57600080fd5b5035919050565b60008151808452611d69816020860160208601611f94565b601f01601f19169290920160200192915050565b805182526020808201516001600160a01b039081169184019190915260408083015190911690830152606080820151908301526080908101511515910152565b60008351611dcf818460208801611f94565b835190830190611de3818360208801611f94565b01949350505050565b6001600160a01b0385811682528416602082015260408101839052608060608201819052600090611e1f90830184611d51565b9695505050505050565b6020808252825182820181905260009190848201906040850190845b81811015611e6b57611e58838551611d7d565b9284019260a09290920191600101611e45565b50909695505050505050565b602081526000610a4f6020830184611d51565b6020808252602d908201527f4552433732313a2063616c6c6572206973206e6f7420746f6b656e206f776e6560408201526c1c881bdc88185c1c1c9bdd9959609a1b606082015260800190565b60208082526032908201527f4552433732313a207472616e7366657220746f206e6f6e20455243373231526560408201527131b2b4bb32b91034b6b83632b6b2b73a32b960711b606082015260800190565b60208082526025908201527f4552433732313a207472616e736665722066726f6d20696e636f72726563742060408201526437bbb732b960d91b606082015260800190565b60a081016104348284611d7d565b60008219821115611f8f57611f8f612016565b500190565b60005b83811015611faf578181015183820152602001611f97565b83811115610c275750506000910152565b600181811c90821680611fd457607f821691505b60208210811415611ff557634e487b7160e01b600052602260045260246000fd5b50919050565b600060001982141561200f5761200f612016565b5060010190565b634e487b7160e01b600052601160045260246000fd5b634e487b7160e01b600052603260045260246000fd5b634e487b7160e01b600052604160045260246000fd5b6001600160e01b03198116811461104f57600080fdfea264697066735822122017915036ed3fcffcc7965a194956afb000c35a4009659a01944d8b059d24e51a64736f6c63430008050033",
  "linkReferences": {},
  "deployedLinkReferences": {}
}